BL51 BANKED LINKER/LOCATER V5.03                                                        04/27/2015  21:20:19  PAGE 1


BL51 BANKED LINKER/LOCATER V5.03, INVOKED BY:
C:\KEIL\C51\BIN\BL51.EXE display_4X8.obj, uart.obj, inte.obj, main.obj TO 智能小风扇 RAMSIZE (256)


MEMORY MODEL: SMALL


INPUT MODULES INCLUDED:
  display_4X8.obj (DISPLAY_4X8)
  uart.obj (UART)
  inte.obj (INTE)
  main.obj (MAIN)
  C:\KEIL\C51\LIB\C51S.LIB (?C_STARTUP)
  C:\KEIL\C51\LIB\C51S.LIB (?C?CLDPTR)
  C:\KEIL\C51\LIB\C51S.LIB (?C_INIT)


LINK MAP OF MODULE:  智能小风扇 (DISPLAY_4X8)


            TYPE    BASE      LENGTH    RELOCATION   SEGMENT NAME
            -----------------------------------------------------

            * * * * * * *   D A T A   M E M O R Y   * * * * * * *
            REG     0000H     0008H     ABSOLUTE     "REG BANK 0"
            DATA    0008H     000AH     UNIT         ?DT?UART
            DATA    0012H     0005H     UNIT         ?DT?DISPLAY_4X8
            DATA    0017H     0005H     UNIT         _DATA_GROUP_
            DATA    001CH     0002H     UNIT         ?DT?MAIN
            IDATA   001EH     0001H     UNIT         ?STACK

            * * * * * * *   C O D E   M E M O R Y   * * * * * * *
            CODE    0000H     0003H     ABSOLUTE     
            CODE    0003H     0008H     UNIT         ?PR?_SENDBYTE?UART
            CODE    000BH     0003H     ABSOLUTE     
            CODE    000EH     0014H     UNIT         ?CO?DISPLAY_4X8
                    0022H     0001H                  *** GAP ***
            CODE    0023H     0003H     ABSOLUTE     
            CODE    0026H     0095H     UNIT         ?PR?MAIN?MAIN
            CODE    00BBH     008CH     UNIT         ?C_C51STARTUP
            CODE    0147H     005CH     UNIT         ?PR?TIMER0_ISR?MAIN
            CODE    01A3H     0037H     UNIT         ?PR?UART_SER?UART
            CODE    01DAH     0021H     UNIT         ?PR?_DISPLAY?DISPLAY_4X8
            CODE    01FBH     0019H     UNIT         ?C?LIB_CODE
            CODE    0214H     0018H     UNIT         ?PR?INITUART?UART
            CODE    022CH     0013H     UNIT         ?PR?_SENDSTR?UART
            CODE    023FH     000AH     UNIT         ?PR?INIT_TIMER0?INTE
            CODE    0249H     0004H     UNIT         ?C_INITSEG



OVERLAY MAP OF MODULE:   智能小风扇 (DISPLAY_4X8)


SEGMENT                            DATA_GROUP 
  +--> CALLED SEGMENT            START    LENGTH
------------------------------------------------
?PR?TIMER0_ISR?MAIN              -----    -----
BL51 BANKED LINKER/LOCATER V5.03                                                      04/27/2015  21:20:19  PAGE 2


  +--> ?PR?_DISPLAY?DISPLAY_4X8

?PR?_DISPLAY?DISPLAY_4X8         -----    -----
  +--> ?CO?DISPLAY_4X8

*** NEW ROOT ***************************************************

?C_C51STARTUP                    -----    -----
  +--> ?PR?MAIN?MAIN
  +--> ?C_INITSEG

?PR?MAIN?MAIN                    0017H    0005H
  +--> ?CO?DISPLAY_4X8
  +--> ?PR?INITUART?UART
  +--> ?PR?INIT_TIMER0?INTE
  +--> ?PR?_SENDSTR?UART

?PR?_SENDSTR?UART                -----    -----
  +--> ?PR?_SENDBYTE?UART



SYMBOL TABLE OF MODULE:  智能小风扇 (DISPLAY_4X8)

  VALUE           TYPE          NAME
  ----------------------------------

  -------         MODULE        DISPLAY_4X8
  C:0000H         SYMBOL        _ICE_DUMMY_
  D:0080H         PUBLIC        P0
  D:0090H         PUBLIC        P1
  D:00A0H         PUBLIC        P2
  D:00B0H         PUBLIC        P3
  D:00A8H         PUBLIC        IE
  D:0013H         PUBLIC        TempData
  D:00B8H         PUBLIC        IP
  D:0098H         PUBLIC        SCON
  D:0088H         PUBLIC        TCON
  C:000EH         PUBLIC        DuanMa
  C:01DAH         PUBLIC        _Display
  C:001EH         PUBLIC        WeiMa
  D:00C8H         PUBLIC        T2CON
  D:00D0H         PUBLIC        PSW
  -------         PROC          _DISPLAY
  D:0007H         SYMBOL        FirstBit
  D:0005H         SYMBOL        Num
  -------         DO            
  D:0012H         SYMBOL        i
  -------         ENDDO         
  C:01DAH         LINE#         13
  C:01DAH         LINE#         14
  C:01DAH         LINE#         17
  C:01DDH         LINE#         18
  C:01DFH         LINE#         20
  C:01E7H         LINE#         21
  C:01F0H         LINE#         23
  C:01F2H         LINE#         24
BL51 BANKED LINKER/LOCATER V5.03                                                      04/27/2015  21:20:19  PAGE 3


  C:01F7H         LINE#         25
  C:01FAH         LINE#         26
  -------         ENDPROC       _DISPLAY
  -------         ENDMOD        DISPLAY_4X8

  -------         MODULE        UART
  C:0000H         SYMBOL        _ICE_DUMMY_
  D:0090H         PUBLIC        P1
  C:0003H         PUBLIC        _SendByte
  D:00B0H         PUBLIC        P3
  B:00A8H.7       PUBLIC        EA
  C:01A3H         PUBLIC        UART_SER
  D:00A8H         PUBLIC        IE
  B:00A8H.4       PUBLIC        ES
  D:00B8H         PUBLIC        IP
  B:0098H.0       PUBLIC        RI
  D:0008H         PUBLIC        flag
  B:0098H.1       PUBLIC        TI
  C:022CH         PUBLIC        _SendStr
  D:0009H         PUBLIC        point
  D:0099H         PUBLIC        SBUF
  D:0098H         PUBLIC        SCON
  D:0089H         PUBLIC        TMOD
  D:0088H         PUBLIC        TCON
  D:008DH         PUBLIC        TH1
  D:008BH         PUBLIC        TL1
  C:0214H         PUBLIC        InitUART
  B:0088H.6       PUBLIC        TR1
  D:000AH         PUBLIC        getByte
  D:00C8H         PUBLIC        T2CON
  D:00D0H         PUBLIC        PSW
  -------         PROC          INITUART
  C:0214H         LINE#         12
  C:0214H         LINE#         13
  C:0214H         LINE#         14
  C:0217H         LINE#         15
  C:0219H         LINE#         16
  C:021CH         LINE#         17
  C:021FH         LINE#         18
  C:0222H         LINE#         19
  C:0225H         LINE#         20
  C:0227H         LINE#         21
  C:0229H         LINE#         22
  C:022BH         LINE#         23
  -------         ENDPROC       INITUART
  -------         PROC          _SENDBYTE
  D:0007H         SYMBOL        dat
  C:0003H         LINE#         28
  C:0003H         LINE#         29
  C:0003H         LINE#         30
  C:0005H         LINE#         31
  C:0008H         LINE#         32
  C:000AH         LINE#         33
  -------         ENDPROC       _SENDBYTE
  -------         PROC          _SENDSTR
  D:0001H         SYMBOL        s
  C:022CH         LINE#         38
BL51 BANKED LINKER/LOCATER V5.03                                                      04/27/2015  21:20:19  PAGE 4


  C:022CH         LINE#         39
  C:022CH         LINE#         40
  C:0232H         LINE#         41
  C:0232H         LINE#         42
  C:0235H         LINE#         43
  C:023CH         LINE#         44
  C:023EH         LINE#         45
  -------         ENDPROC       _SENDSTR
  -------         PROC          UART_SER
  C:01A3H         LINE#         50
  C:01AEH         LINE#         52
  C:01B1H         LINE#         53
  C:01B1H         LINE#         54
  C:01B3H         LINE#         55
  C:01BAH         LINE#         57
  C:01C6H         LINE#         58
  C:01C9H         LINE#         60
  C:01CEH         LINE#         61
  C:01D1H         LINE#         62
  C:01D1H         LINE#         63
  -------         ENDPROC       UART_SER
  -------         ENDMOD        UART

  -------         MODULE        INTE
  C:0000H         SYMBOL        _ICE_DUMMY_
  D:0090H         PUBLIC        P1
  D:00B0H         PUBLIC        P3
  B:00A8H.7       PUBLIC        EA
  D:00A8H         PUBLIC        IE
  D:00B8H         PUBLIC        IP
  C:023FH         PUBLIC        Init_Timer0
  D:0098H         PUBLIC        SCON
  D:0089H         PUBLIC        TMOD
  D:0088H         PUBLIC        TCON
  B:00A8H.1       PUBLIC        ET0
  B:0088H.4       PUBLIC        TR0
  D:00C8H         PUBLIC        T2CON
  D:00D0H         PUBLIC        PSW
  -------         PROC          INIT_TIMER0
  C:023FH         LINE#         6
  C:023FH         LINE#         7
  C:023FH         LINE#         8
  C:0242H         LINE#         11
  C:0244H         LINE#         12
  C:0246H         LINE#         13
  C:0248H         LINE#         14
  -------         ENDPROC       INIT_TIMER0
  -------         ENDMOD        INTE

  -------         MODULE        MAIN
  C:0000H         SYMBOL        _ICE_DUMMY_
  B:0090H.1       PUBLIC        DCOUT
  D:0090H         PUBLIC        P1
  D:00B0H         PUBLIC        P3
  D:00A8H         PUBLIC        IE
  B:00A8H.4       PUBLIC        ES
  D:00B8H         PUBLIC        IP
BL51 BANKED LINKER/LOCATER V5.03                                                      04/27/2015  21:20:19  PAGE 5


  C:0026H         PUBLIC        main
  D:0098H         PUBLIC        SCON
  D:0088H         PUBLIC        TCON
  D:008CH         PUBLIC        TH0
  D:008AH         PUBLIC        TL0
  C:0147H         PUBLIC        Timer0_isr
  D:00C8H         PUBLIC        T2CON
  D:001DH         PUBLIC        PWM_ON
  D:00D0H         PUBLIC        PSW
  -------         PROC          MAIN
  -------         DO            
  D:0017H         SYMBOL        answer
  D:0007H         SYMBOL        k
  D:0007H         SYMBOL        data1
  D:0006H         SYMBOL        data2
  -------         ENDDO         
  C:0026H         LINE#         29
  C:0026H         LINE#         30
  C:0026H         LINE#         34
  C:0029H         LINE#         35
  C:002CH         LINE#         36
  C:002FH         LINE#         37
  C:0035H         LINE#         38
  C:0037H         LINE#         40
  C:003AH         LINE#         41
  C:003DH         LINE#         42
  C:0040H         LINE#         44
  C:0040H         LINE#         45
  C:0040H         LINE#         46
  C:0055H         LINE#         47
  C:0055H         LINE#         48
  C:0057H         LINE#         50
  C:005AH         LINE#         51
  C:0061H         LINE#         52
  C:0068H         LINE#         53
  C:006DH         LINE#         54
  C:0076H         LINE#         55
  C:0078H         LINE#         56
  C:0084H         LINE#         57
  C:008FH         LINE#         58
  C:0092H         LINE#         59
  C:0093H         LINE#         60
  C:0093H         LINE#         61
  C:0098H         LINE#         62
  C:009BH         LINE#         63
  C:00A0H         LINE#         64
  C:00A0H         LINE#         65
  C:00A9H         LINE#         67
  C:00A9H         LINE#         68
  C:00B2H         LINE#         69
  C:00B5H         LINE#         70
  C:00B7H         LINE#         71
  C:00B9H         LINE#         72
  C:00B9H         LINE#         73
  -------         ENDPROC       MAIN
  -------         PROC          TIMER0_ISR
  -------         DO            
BL51 BANKED LINKER/LOCATER V5.03                                                      04/27/2015  21:20:19  PAGE 6


  D:001CH         SYMBOL        count
  -------         ENDDO         
  C:0147H         LINE#         79
  C:0164H         LINE#         82
  C:0167H         LINE#         83
  C:016AH         LINE#         85
  C:0171H         LINE#         87
  C:0176H         LINE#         88
  C:0176H         LINE#         89
  C:0178H         LINE#         91
  C:0178H         LINE#         92
  C:017AH         LINE#         93
  C:017FH         LINE#         94
  C:017FH         LINE#         95
  C:0182H         LINE#         96
  C:0186H         LINE#         97
  C:0188H         LINE#         98
  C:0188H         LINE#         99
  -------         ENDPROC       TIMER0_ISR
  -------         ENDMOD        MAIN

  -------         MODULE        ?C?CLDPTR
  C:01FBH         PUBLIC        ?C?CLDPTR
  -------         ENDMOD        ?C?CLDPTR

Program Size: data=31.0 xdata=0 code=588
LINK/LOCATE RUN COMPLETE.  0 WARNING(S),  0 ERROR(S)
